:1000000012C0189518951895189518951895189563
:100010001895189518951895189518951895189578
:100020001895189518958FED8DBFC8EBE0EA4E2E08
:10003000DD275D2EA89584B7082E877F84BF88E1D1
:10004000992781BD91BDEEE7F0E0A0E6B0E08827FA
:100050008D933197E9F783E389B980E082B988E12C
:100060008AB9662480E087BB8D988E98D098D19805
:100070008A9A8B9A8C9A74B7777F74BF8EE181BD10
:1000800086E081BD88EC90E0A1E68D939C9385E1AC
:1000900080936000929A949A80EA9FE030D2939A7B
:1000A000A3E6E6E2F6E045D2A3E613D2A3E64AD2FF
:1000B000082FA8E8B0E0E0E1F0E064D208D20FD267
:1000C00088EE93E01CD29298949881B5886081BDA7
:1000D00081E080937E0000917E000B3010F009F0EB
:1000E00048C0AEE7AD90A2E7AA0D0C91013009F02F
:1000F0003AC0939AAFE7EEE7F0E044D2AFE78DD293
:10010000082F023008F015C083E00DD2EFE7F0E0D1
:10011000A881B9817DD2AFE7E2E3F6E00AD2E881B7
:10012000F981AFE7CDD174D283E0481A80E0580A54
:100130002296A3E6E4E3F6E0FCD1EFE7F0E0A3E6E5
:10014000BFD166D2A3E6BCD1ECE3F6E0F2D1A3E6E0
:10015000C0D1A3E6F7D1082FA8E8B0E0E0E1F0E0D5
:1001600011D2B5D1BCD1AEE78C918F5F8C9308F4DE
:10017000B2CFB09919C000917300003009F011C0DE
:10018000939AA3E6E0E4F6E0D4D1A3E6A2D1A3E6F5
:10019000D9D1082FA8E8B0E0E0E1F0E0F3D197D1A1
:1001A0009ED18EE180937300B19919C000917400C3
:1001B000003009F011C0939AA3E6ECE4F6E0B9D15F
:1001C000A3E687D1A3E6BED1082FA8E8B0E0E0E11E
:1001D000F0E0D8D17CD183D18EE180937400B299C4
:1001E00019C000917500003009F011C0939AA3E680
:1001F000E8E5F6E09ED1A3E66CD1A3E6A3D1082FF3
:10020000A8E8B0E0E0E1F0E0BDD161D168D18EE1D5
:1002100080937500B39919C000917600003009F001
:1002200011C0939AA3E6E4E6F6E083D1A3E651D1A8
:10023000A3E688D1082FA8E8B0E0E0E1F0E0A2D181
:1002400046D14DD18EE180937600B49919C00091CA
:100250007700003009F011C0939AA3E6E0E7F6E0DA
:1002600068D1A3E636D1A3E66DD1082FA8E8B0E0A7
:10027000E0E1F0E087D12BD132D18EE1809377009D
:10028000B59919C000917800003009F011C0939A17
:10029000A3E6ECE7F6E04DD1A3E61BD1A3E652D1ED
:1002A000082FA8E8B0E0E0E1F0E06CD110D117D160
:1002B0008EE180937800B69919C0009179000030E2
:1002C00009F011C0939AA3E6E8E8F6E032D1A3E67C
:1002D00000D1A3E637D1082FA8E8B0E0E0E1F0E0D4
:1002E00051D1F5D0FCD08EE180937900B79919C037
:1002F00000917A00003009F011C0939AA3E6E4E976
:10030000F6E017D1A3E6E5D0A3E61CD1082FA8E8B4
:10031000B0E0E0E1F0E036D1DAD0E1D08EE18093D8
:100320007A00859919C000917B00003009F011C056
:10033000939AA3E6E0EAF6E0FCD0A3E6CAD0A3E6EF
:1003400001D1082FA8E8B0E0E0E1F0E01BD1BFD078
:10035000C6D08EE180937B00869919C000917C0005
:10036000003009F011C0939AA3E6ECEAF6E0E1D080
:10037000A3E6AFD0A3E6E6D0082FA8E8B0E0E0E11E
:10038000F0E000D1A4D0ABD08EE180937C00C8997E
:1003900019C000917D00003009F011C0939AA3E6C6
:1003A000E8EBF6E0C6D0A3E694D0A3E6CBD0082FC6
:1003B000A8E8B0E0E0E1F0E0E5D089D090D08EE1AF
:1003C00080937D0081E080937E0000917E000B3061
:1003D00010F009F015C0AEE7AD90A2E7AA0D0C91A0
:1003E000003010F009F001C005C0AEE7AD90A2E703
:1003F000AA0D5BD0AEE78C918F5F8C9308F4E5CFAC
:10040000A1E60D911C91003050E0150714F009F0A1
:1004100001C002C0A1E64DD0A1E60D911C910030B3
:1004200050E0150709F016C0939AA3E6E4ECF6E055
:1004300080D0A3E64ED0A3E685D0082FA8E8B0E090
:10044000E0E1F0E09FD043D04AD088EC90E0A1E614
:100450008D939C9300916000003010F009F001C072
:1004600005C0809160008150809360000091600021
:10047000053009F001C0929A00916000003009F047
:1004800004C0929885E180936000A895A2E38C91C6
:1004900083FBA2E38C9184F98C93939884E690E09B
:1004A0002ED0949815CEF894FFCF8C9181508C93D8
:1004B0000895ED91FC91E150F040FC93EE93089586
:1004C0008F938D918823E9F711978F910895A8E86C
:1004D000B0E08D91882311F005D0FBCF08958DE019
:1004E00001D08AE05D9BFECF8CB908953197F1F77A
:1004F0000895689462F80895E89462F80895EF9377
:10050000FF93EE27E82BE92B31F0E0EDF7E0319790
:10051000F1F70197D1F7FF91EF91089501911191B2
:1005200021913081089599275A924A92480E591E76
:10053000089504D00D920020E1F70895C8953196F2
:100540000020089588279D91890F9923E1F7089548
:10055000000F111F221F331F08950095109520953D
:1005600030950F5F1F4F2F4F3F4F0895019110811E
:100570000BC0D4DF0BC00191108117FF05C03FEF06
:100580002FEF04C0008111272227332737FF03C034
:10059000E4DF8DE28D93CF92DF92EF92AA24BB2409
:1005A000CC24DD24EE2440E2EAE0FF2755E093E38B
:1005B0008081890F87FD9F7083FD907F891B8193C8
:1005C0005A95A9F7C5DFAA1CBB1CCC1CDD1CEE1C70
:1005D0004A9551F7E894EFE0FF2782910CD0EB3079
:1005E000E0F71EF068948A2D0AD088278D93EF904B
:1005F000DF90CF900895982F829501D0892F8F702A
:10060000805D26F0803309F4089568948D930895F1
:1006100081918D938823E1F708958FEF83959D91C4
:100620009923E1F708953030313A733A30303A3156
:100630003A0030003030313A693A00003A303A003E
:100640003030313A693A30313A313A003030313A6B
:10065000693A30323A313A003030313A693A30331F
:100660003A313A003030313A693A30343A313A006E
:100670003030313A693A30353A313A003030313A37
:10068000693A30363A313A003030313A693A3037E7
:100690003A313A003030313A693A30383A313A003A
:1006A0003030313A693A30393A313A003030313A03
:1006B000693A31303A313A003030313A693A3131C1
:1006C0003A313A003030313A733A30313A313A0007
:00000001FF
