:1000000012C0189518951895189518951895189563
:100010001895189518951895189518951895189578
:100020001895189518958FE58DBFC8E3E0E24E2E20
:1000300084E08EBFD4E0F4E05F2EA89584B7082E4C
:10004000877F84BF88E1992781BD91BDEEEFF3E002
:10005000A0E6B0E088278D933197E9F783E389B96B
:1000600080E080BD88E18AB96624B89AB99ABA98C6
:10007000BB98BC98BD9880E084BB8B988C988D9879
:100080008E988F9880ED97E0A2E6B0E08D939C93D8
:1000900088E893E18CD567D5A5E9B0E08C93009111
:1000A0009500013009F005C062D5A6E9B0E08C9357
:1000B00001C006C000919600003309F001C056C38C
:1000C00081E080939200009192000F3010F009F0CF
:1000D0005DC0A2E9B0E0AD90BB24A2E7B0E0AA0CFD
:1000E000BB1CAA0DBB1D0D911C91013050E01507E2
:1000F00009F045C087E68093B000A3E9B0E0E2E9EB
:10010000F0E098D5A3E9B0E0F2D5082F023008F06E
:1001100017C083E060D5E3E9F0E0A881B981D3D5C9
:10012000A3E9B0E0ECE2FDE05CD5E881F981A3E968
:10013000B0E0FDD4C8D583E0481A80E0580A229682
:10014000A4E6B0E0EEE2FDE04CD5E3E9F0E0A4E6A1
:10015000B0E0EDD4B8D5A4E6B0E0E9D4E6E3FDE044
:1001600040D5A4E6B0E00DD5A4E6B0E043D5082F15
:10017000A8E0B4E0E0E1F0E05DD501D508D5A2E962
:10018000B0E08C918F5F8C9308F49DCF989925C037
:10019000A4E7B0E00D911C91003050E0150709F084
:1001A00016C087E68093B000A4E6B0E0EAE3FDE085
:1001B00018D5A4E6B0E0E5D4A4E6B0E01BD5082F3E
:1001C000A8E0B4E0E0E1F0E035D5D9D4E0D488EBA4
:1001D0009BE0A4E7B0E08D939C93999925C0A6E796
:1001E000B0E00D911C91003050E0150709F016C0E9
:1001F00087E68093B000A4E6B0E0E6E4FDE0F1D449
:10020000A4E6B0E0BED4A4E6B0E0F4D4082FA8E0A1
:10021000B4E0E0E1F0E00ED5B2D4B9D488EB9BE0D5
:10022000A6E7B0E08D939C939A9925C0A8E7B0E02B
:100230000D911C91003050E0150709F016C087E6BB
:100240008093B000A4E6B0E0E2E5FDE0CAD4A4E605
:10025000B0E097D4A4E6B0E0CDD4082FA8E0B4E095
:10026000E0E1F0E0E7D48BD492D488EB9BE0A8E700
:10027000B0E08D939C939B9925C0AAE7B0E00D91C7
:100280001C91003050E0150709F016C087E68093F6
:10029000B000A4E6B0E0EEE5FDE0A3D4A4E6B0E053
:1002A00070D4A4E6B0E0A6D4082FA8E0B4E0E0E162
:1002B000F0E0C0D464D46BD488EB9BE0AAE7B0E054
:1002C0008D939C939C9925C0ACE7B0E00D911C9157
:1002D000003050E0150709F016C087E68093B000A3
:1002E000A4E6B0E0EAE6FDE07CD4A4E6B0E049D4C0
:1002F000A4E6B0E07FD4082FA8E0B4E0E0E1F0E0AD
:1003000099D43DD444D488EB9BE0ACE7B0E08D9326
:100310009C939D9925C0AEE7B0E00D911C910030F3
:1003200050E0150709F016C087E68093B000A4E6F8
:10033000B0E0E6E7FDE055D4A4E6B0E022D4A4E6C0
:10034000B0E058D4082FA8E0B4E0E0E1F0E072D4C7
:1003500016D41DD488EB9BE0AEE7B0E08D939C9360
:10036000839925C0A0E8B0E00D911C91003050E0C9
:10037000150709F016C087E68093B000A4E6B0E048
:10038000E2E8FDE02ED4A4E6B0E0FBD3A4E6B0E0C2
:1003900031D4082FA8E0B4E0E0E1F0E04BD4EFD393
:1003A000F6D388EB9BE0A0E8B0E08D939C93849912
:1003B00025C0A2E8B0E00D911C91003050E0150777
:1003C00009F016C087E68093B000A4E6B0E0EEE83E
:1003D000FDE007D4A4E6B0E0D4D3A4E6B0E00AD4AC
:1003E000082FA8E0B4E0E0E1F0E024D4C8D3CFD3F4
:1003F00088EB9BE0A2E8B0E08D939C93859925C0A3
:10040000A4E8B0E00D911C91003050E0150709F010
:1004100016C087E68093B000A4E6B0E0EAE9FDE00C
:10042000E0D3A4E6B0E0ADD3A4E6B0E0E3D3082F78
:10043000A8E0B4E0E0E1F0E0FDD3A1D3A8D388EBDD
:100440009BE0A4E8B0E08D939C93869925C0A6E834
:10045000B0E00D911C91003050E0150709F016C076
:1004600087E68093B000A4E6B0E0E6EAFDE0B9D309
:10047000A4E6B0E086D3A4E6B0E0BCD3082FA8E0A1
:10048000B4E0E0E1F0E0D6D37AD381D388EB9BE00F
:10049000A6E8B0E08D939C93879925C0A8E8B0E0CA
:1004A0000D911C91003050E0150709F016C087E649
:1004B0008093B000A4E6B0E0E2EBFDE092D3A4E6C6
:1004C000B0E05FD3A4E6B0E095D3082FA8E0B4E095
:1004D000E0E1F0E0AFD353D35AD388EB9BE0A8E838
:1004E000B0E08D939C93B29925C0AAE8B0E00D913D
:1004F0001C91003050E0150709F016C087E6809384
:10050000B000A4E6B0E0EEEBFDE06BD3A4E6B0E013
:1005100038D3A4E6B0E06ED3082FA8E0B4E0E0E161
:10052000F0E088D32CD333D388EB9BE0AAE8B0E08B
:100530008D939C93B39925C0ACE8B0E00D911C91CC
:10054000003050E0150709F016C087E68093B00030
:10055000A4E6B0E0EAECFDE044D3A4E6B0E011D3B9
:10056000A4E6B0E047D3082FA8E0B4E0E0E1F0E073
:1005700061D305D30CD388EB9BE0ACE8B0E08D935E
:100580009C93B49925C0AEE8B0E00D911C91003069
:1005900050E0150709F016C087E68093B000A4E686
:1005A000B0E0E6EDFDE01DD3A4E6B0E0EAD2A4E6BB
:1005B000B0E020D3082FA8E0B4E0E0E1F0E03AD3C7
:1005C000DED2E5D288EB9BE0AEE8B0E08D939C9361
:1005D000B59925C0A0E9B0E00D911C91003050E024
:1005E000150709F016C087E68093B000A4E6B0E0D6
:1005F000E2EEFDE0F6D2A4E6B0E0C3D2A4E6B0E0BD
:10060000F9D2082FA8E0B4E0E0E1F0E013D3B7D2CC
:10061000BED288EB9BE0A0E9B0E08D939C9381E093
:1006200080939200009192000F3010F009F025C0E5
:10063000A2E9B0E0AD90BB24A2E7B0E0AA0CBB1CDD
:10064000AA0DBB1D0D911C91003050E0150714F050
:1006500009F001C00BC0A2E9B0E0AD90BB24A2E755
:10066000B0E0AA0CBB1CAA0DBB1D5AD2A2E9B0E097
:100670008C918F5F8C9308F4D5CF0091B00000303F
:1006800010F009F001C005C08091B0008150809346
:10069000B0000091B000043609F001C0C19A009189
:1006A000B000003009F001C0C198A2E6B0E00D91A1
:1006B0001C91003050E0150714F009F001C003C090
:1006C000A2E6B0E02DD2A2E6B0E00D911C91003080
:1006D00050E0150709F01CC087E68093B000A4E63F
:1006E000B0E0EEEEFDE07DD2A4E6B0E04AD2A4E6B2
:1006F000B0E080D2082FA8E0B4E0E0E1F0E09AD2C8
:100700003ED245D280E29EE4A2E6B0E08D939C9377
:10071000A0E6B0E00D911C91003050E0150714F0F8
:1007200009F001C003C0A0E6B0E0FAD1A0E6B0E055
:100730000D911C91043F51E0150709F001C0C09ACA
:10074000A0E6B0E00D911C91003050E0150709F0D3
:1007500007C0C09884E398E0A0E6B0E08D939C9336
:1007600081E090E024D297CCF894FFCFDCD2A7E9C7
:10077000B0E0EFE0E5D1D4D2E7E9F0E003E0A7EAAA
:10078000B0E0ADD285E0E7E9F0E001E00A93ABEA42
:10079000B0E09ED287E0E7E9F0E002E00A93ADEA3C
:1007A000B0E096D2ABEAB0E0EAEFFDE0A6D281E09D
:1007B00009F080E08F93A7EAB0E0ECEFFDE09DD276
:1007C00081E009F080E09F918923882309F4A5C185
:1007D000ADEAB0E0E0E0FEE090D209F017C0A4E797
:1007E000B0E00D911C91003050E0150709F007C0F2
:1007F00082E090E0A4E7B0E08D939C9306C080E097
:1008000090E0A4E7B0E08D939C9387C1E4E0FEE024
:1008100074D209F017C0A6E7B0E00D911C9100302A
:1008200050E0150709F007C082E090E0A6E7B0E0CD
:100830008D939C9306C080E090E0A6E7B0E08D9396
:100840009C936BC1E8E0FEE058D209F017C0A8E71E
:10085000B0E00D911C91003050E0150709F007C081
:1008600082E090E0A8E7B0E08D939C9306C080E022
:1008700090E0A8E7B0E08D939C934FC1ECE0FEE0E0
:100880003CD209F017C0AAE7B0E00D911C910030EE
:1008900050E0150709F007C082E090E0AAE7B0E059
:1008A0008D939C9306C080E090E0AAE7B0E08D9322
:1008B0009C9333C1E0E1FEE020D209F017C0ACE721
:1008C000B0E00D911C91003050E0150709F007C011
:1008D00082E090E0ACE7B0E08D939C9306C080E0AE
:1008E00090E0ACE7B0E08D939C9317C1E4E1FEE0AB
:1008F00004D209F017C0AEE7B0E00D911C910030B2
:1009000050E0150709F007C082E090E0AEE7B0E0E4
:100910008D939C9306C080E090E0AEE7B0E08D93AD
:100920009C93FBC0E8E1FEE0E8D109F017C0A0E825
:10093000B0E00D911C91003050E0150709F007C0A0
:1009400082E090E0A0E8B0E08D939C9306C080E048
:1009500090E0A0E8B0E08D939C93DFC0ECE1FEE076
:10096000CCD109F017C0A2E8B0E00D911C91003085
:1009700050E0150709F007C082E090E0A2E8B0E07F
:100980008D939C9306C080E090E0A2E8B0E08D9348
:100990009C93C3C0E0E2FEE0B0D109F017C0A4E828
:1009A000B0E00D911C91003050E0150709F007C030
:1009B00082E090E0A4E8B0E08D939C9306C080E0D4
:1009C00090E0A4E8B0E08D939C93A7C0E4E2FEE041
:1009D00094D109F017C0A6E8B0E00D911C91003049
:1009E00050E0150709F007C082E090E0A6E8B0E00B
:1009F0008D939C9306C080E090E0A6E8B0E08D93D4
:100A00009C938BC0E8E2FEE078D109F017C0A8E81B
:100A1000B0E00D911C91003050E0150709F007C0BF
:100A200082E090E0A8E8B0E08D939C9306C080E05F
:100A300090E0A8E8B0E08D939C936FC0ECE2FEE0FC
:100A40005CD109F017C0AAE8B0E00D911C9100300C
:100A500050E0150709F007C082E090E0AAE8B0E096
:100A60008D939C9306C080E090E0AAE8B0E08D935F
:100A70009C9353C0E0E3FEE040D109F017C0ACE81E
:100A8000B0E00D911C91003050E0150709F007C04F
:100A900082E090E0ACE8B0E08D939C9306C080E0EB
:100AA00090E0ACE8B0E08D939C9337C0E4E3FEE0C7
:100AB00024D109F017C0AEE8B0E00D911C910030D0
:100AC00050E0150709F007C082E090E0AEE8B0E022
:100AD0008D939C9306C080E090E0AEE8B0E08D93EB
:100AE0009C931BC0E8E3FEE008D109F016C0A0E922
:100AF000B0E00D911C91003050E0150709F007C0DF
:100B000082E090E0A0E9B0E08D939C9306C080E085
:100B100090E0A0E9B0E08D939C93D2CAF894FFCF07
:100B2000ED91FC91E150F040FC93EE9308958F938A
:100B30008D918823E9F711978F910895A8E0B4E08B
:100B40001AD08D3039F0EE23D9F38D93EA9563FEF8
:100B500021D0F6CF63FC04C08DE01CD08AE01AD00F
:100B600088278C93089581E05F9B882708958827C4
:100B70005F9B089500C05F9BFECF8CB10895A8E0F5
:100B8000B4E08D91882311F005D0FBCF08958DE05E
:100B900001D08AE05D9BFECF8CB908953197F1F7C3
:100BA0000895689462F80895E89462F80895EF93C0
:100BB000FF93EE27E82BE92B31F0E0EDF7E03197DA
:100BC000F1F70197D1F7FF91EF91089501911191FC
:100BD00021913081089599275A924A92480E591EC0
:100BE000089504D00D920020E1F70895C89531963C
:100BF0000020089588279D91890F9923E1F7089592
:100C0000000F111F221F331F089500951095209586
:100C100030950F5F1F4F2F4F3F4F08950191108167
:100C20000BC0D4DF0BC00191108117FF05C03FEF4F
:100C30002FEF04C0008111272227332737FF03C07D
:100C4000E4DF8DE28D93CF92DF92EF92AA24BB2452
:100C5000CC24DD24EE2440E2EAE0FF2755E093E3D4
:100C60008081890F87FD9F7083FD907F891B819311
:100C70005A95A9F7C5DFAA1CBB1CCC1CDD1CEE1CB9
:100C80004A9551F7E894EFE0FF2782910CD0EB30C2
:100C9000E0F71EF068948A2D0AD088278D93EF9094
:100CA000DF90CF900895982F829501D0892F8F7073
:100CB000805D26F0803309F4089568948D9308953B
:100CC00088278D93089581918D938823E1F7089566
:100CD00009919191992351F08A95D9F73197002381
:100CE00029F081918D930A958823C9F7E9CF8FEF79
:100CF00083959D919923E1F70895689401C0E89444
:100D0000AF93BF938D9116F0919102C06FDF902D3C
:100D1000891718F011F48823A9F7BF91AF910895AE
:100D2000E89463F80895689463F8089530003030CB
:100D3000313A693A00003A303A003030313A693A93
:100D400030313A313A003030313A693A30323A3162
:100D50003A003030313A693A30333A313A00303083
:100D6000313A693A30343A313A003030313A693AFE
:100D700030353A313A003030313A693A30363A312A
:100D80003A003030313A693A30373A313A0030304F
:100D9000313A693A30383A313A003030313A693ACA
:100DA00030393A313A003030313A693A31303A31FB
:100DB0003A003030313A693A31313A313A00303024
:100DC000313A693A31323A313A003030313A693A9F
:100DD00031333A313A003030313A693A31343A31CC
:100DE0003A003030313A693A31353A313A003030F0
:100DF000313A733A30313A313A00690030303100DB
:100E00003031000030320000303300003034000058
:100E10003035000030360000303700003038000038
:100E20003039000031300000313100003132000033
:0C0E300031330000313400003135000087
:00000001FF
