:1000000012C0189518951895189518951895189563
:100010001895189518951895189518951895189578
:100020001895189518958FED8DBFC8EBE0EA4E2E08
:10003000DD275D2EA89584B7082E877F84BF88E1D1
:10004000992781BD91BDEEE7F0E0A0E6B0E08827FA
:100050008D933197E9F783E389B980E082B988E12C
:100060008AB9662480E087BB8D988E98D098D19805
:100070008A9A8B9A8C9A74B7777F74BF8EE181BD10
:1000800086E081BD939AE4E6F6E0C3D2C8D281B59A
:10009000886081BDA4E60D911C91013050E01507E8
:1000A00009F005C0939AE8E6F6E0B3D2B8D2A6E626
:1000B0000D911C91013050E0150709F005C0939A8D
:1000C000E0E7F6E0A6D2ABD2A8E60D911C91013094
:1000D00050E0150709F005C0939AE8E7F6E099D2D9
:1000E0009ED2AAE60D911C91013050E0150709F04F
:1000F00005C0939AE0E8F6E08CD291D2ACE60D917F
:100100001C91013050E0150709F005C0939AE8E80A
:10011000F6E07FD284D2AEE60D911C91013050E022
:10012000150709F005C0939AEEE8F6E072D277D28F
:10013000A0E70D911C91013050E0150709F005C0B2
:10014000939AE6E9F6E065D26AD2A2E70D911C9196
:10015000013050E0150709F005C0939AEEE9F6E08A
:1001600058D25DD2A4E70D911C91013050E01507E3
:1001700009F005C0939AE6EAF6E04BD250D2A6E722
:100180000D911C91013050E0150709F005C0939ABC
:10019000ECEAF6E03ED243D2A8E70D911C91013083
:1001A00050E0150709F005C0939AE4EBF6E031D270
:1001B00036D2AAE70D911C91013050E0150709F0E5
:1001C00005C0939AEAEBF6E024D229D2B09912C086
:1001D000A4E60D911C91003050E0150709F005C010
:1001E000939AE0ECF6E015D21AD288E290E0A4E609
:1001F0008D939C93B19912C0A6E60D911C9100308D
:1002000050E0150709F005C0939AE8ECF6E001D23A
:1002100006D288E290E0A6E68D939C93B29912C034
:10022000A8E60D911C91003050E0150709F005C0BB
:10023000939AE0EDF6E0EDD1F2D188E290E0A8E605
:100240008D939C93B39912C0AAE60D911C91003036
:1002500050E0150709F005C0939AE8EDF6E0D9D112
:10026000DED188E290E0AAE68D939C93B49912C007
:10027000ACE60D911C91003050E0150709F005C067
:10028000939AE0EEF6E0C5D1CAD188E290E0ACE600
:100290008D939C93B59912C0AEE60D911C910030E0
:1002A00050E0150709F005C0939AE6EEF6E0B1D1EB
:1002B000B6D188E290E0AEE68D939C93B69912C0D9
:1002C000A0E70D911C91003050E0150709F005C022
:1002D000939AEEEEF6E09DD1A2D188E290E0A0E7FD
:1002E0008D939C93B79912C0A2E70D911C91003099
:1002F00050E0150709F005C0939AE6EFF6E089D1C2
:100300008ED188E290E0A2E78D939C93859912C0EC
:10031000A4E70D911C91003050E0150709F005C0CD
:10032000939AEEEFF6E075D17AD188E290E0A4E7F7
:100330008D939C93869912C0A6E70D911C91003075
:1003400050E0150709F005C0939AE4E0F7E061D1A9
:1003500066D188E290E0A6E78D939C93C89912C07D
:10036000A8E70D911C91003050E0150709F005C079
:10037000939AECE0F7E04DD152D188E290E0A8E703
:100380008D939C93C99912C0AAE70D911C910030DE
:1003900050E0150709F005C0939AE2E1F7E039D182
:1003A0003ED188E290E0AAE78D939C93A4E60D915C
:1003B0001C91003050E0150714F009F001C008C08E
:1003C000A4E60D911C9101501040A4E60D931C93DE
:1003D000A6E60D911C91003050E0150714F009F0CD
:1003E00001C008C0A6E60D911C9101501040A6E680
:1003F0000D931C93A8E60D911C91003050E0150759
:1004000014F009F001C008C0A8E60D911C9101503C
:100410001040A8E60D931C93AAE60D911C910030A4
:1004200050E0150714F009F001C008C0AAE60D91CC
:100430001C9101501040AAE60D931C93ACE60D915F
:100440001C91003050E0150714F009F001C008C0FD
:10045000ACE60D911C9101501040ACE60D931C933D
:10046000AEE60D911C91003050E0150714F009F034
:1004700001C008C0AEE60D911C9101501040AEE6DF
:100480000D931C93A0E70D911C91003050E01507CF
:1004900014F009F001C008C0A0E70D911C910150B3
:1004A0001040A0E70D931C93A2E70D911C91003022
:1004B00050E0150714F009F001C008C0A2E70D9143
:1004C0001C9101501040A2E70D931C93A4E70D91DD
:1004D0001C91003050E0150714F009F001C008C06D
:1004E000A4E70D911C9101501040A4E70D931C93BB
:1004F000A6E70D911C91003050E0150714F009F0AB
:1005000001C008C0A6E70D911C9101501040A6E75C
:100510000D931C93A8E70D911C91003050E0150736
:1005200014F009F001C008C0A8E70D911C9101501A
:100530001040A8E70D931C93AAE70D911C91003081
:1005400050E0150714F009F001C008C0AAE70D91AA
:100550001C9101501040AAE70D931C93A2E60D9147
:100560001C91003050E0150714F009F001C008C0DC
:10057000A2E60D911C9101501040A2E60D931C9330
:10058000A2E60D911C91003050E0150709F00AC059
:10059000939AE4E6F6E03DD042D088EB9BE0A2E6F9
:1005A0008D939C93A0E60D911C91003050E01507AF
:1005B00014F009F001C008C0A0E60D911C91015093
:1005C0001040A0E60D931C93A0E60D911C91053000
:1005D00050E0150709F001C0929AA0E60D911C9118
:1005E000003050E0150709F006C0929885E190E0D0
:1005F000A0E68D939C93A895A2E38C9183FBA2E344
:100600008C9184F98C9384E690E019D09398949817
:1006100041CD24D0802D11F005D0FBCF08958DE081
:1006200001D08AE05D9BFECF8CB908953197F1F738
:100630000895689462F80895E89462F80895EF9335
:10064000FF93EE27E82BE92B31F0E0EDF7E031974F
:10065000F1F70197D1F7FF91EF910895C895319681
:10066000002008956F6D7500667573652030000079
:10067000766F6C7420300000686F73742030000057
:1006800074656D702030000066616E203000756EFC
:10069000697420300000646F6F72203000006D7547
:1006A000746520300000696C6C2030006C616D70E6
:1006B00020300000737562203000617578203000B2
:1006C0006675736520310000766F6C742031000010
:1006D000686F73742031000074656D702031000004
:1006E00066616E203100756E697420310000646FA0
:1006F0006F72203100006D75746520310000696CE7
:100700006C2031006C616D702031000073756220C7
:08071000310061757820310011
:00000001FF
